{
  "_format": "hh-sol-artifact-1",
  "contractName": "CertificateRegistry",
  "sourceName": "contracts/CertificateRegistry.sol",
  "abi": [
    {
      "inputs": [],
      "stateMutability": "nonpayable",
      "type": "constructor"
    },
    {
      "anonymous": false,
      "inputs": [
        {
          "indexed": true,
          "internalType": "string",
          "name": "certificateId",
          "type": "string"
        },
        {
          "indexed": false,
          "internalType": "uint256",
          "name": "timestamp",
          "type": "uint256"
        }
      ],
      "name": "CertificateRevoked",
      "type": "event"
    },
    {
      "anonymous": false,
      "inputs": [
        {
          "indexed": true,
          "internalType": "string",
          "name": "certificateId",
          "type": "string"
        },
        {
          "indexed": true,
          "internalType": "bytes32",
          "name": "dataHash",
          "type": "bytes32"
        },
        {
          "indexed": false,
          "internalType": "uint256",
          "name": "timestamp",
          "type": "uint256"
        }
      ],
      "name": "CertificateStored",
      "type": "event"
    },
    {
      "inputs": [],
      "name": "admin",
      "outputs": [
        {
          "internalType": "address",
          "name": "",
          "type": "address"
        }
      ],
      "stateMutability": "view",
      "type": "function"
    },
    {
      "inputs": [
        {
          "internalType": "string",
          "name": "",
          "type": "string"
        }
      ],
      "name": "certificates",
      "outputs": [
        {
          "internalType": "bytes32",
          "name": "dataHash",
          "type": "bytes32"
        },
        {
          "internalType": "uint256",
          "name": "timestamp",
          "type": "uint256"
        },
        {
          "internalType": "address",
          "name": "issuer",
          "type": "address"
        },
        {
          "internalType": "bool",
          "name": "isValid",
          "type": "bool"
        }
      ],
      "stateMutability": "view",
      "type": "function"
    },
    {
      "inputs": [
        {
          "internalType": "string",
          "name": "_certificateId",
          "type": "string"
        }
      ],
      "name": "revokeCertificate",
      "outputs": [],
      "stateMutability": "nonpayable",
      "type": "function"
    },
    {
      "inputs": [
        {
          "internalType": "string",
          "name": "_certificateId",
          "type": "string"
        },
        {
          "internalType": "string",
          "name": "_hash",
          "type": "string"
        }
      ],
      "name": "storeCertificate",
      "outputs": [],
      "stateMutability": "nonpayable",
      "type": "function"
    },
    {
      "inputs": [
        {
          "internalType": "string",
          "name": "_certificateId",
          "type": "string"
        },
        {
          "internalType": "string",
          "name": "_hash",
          "type": "string"
        }
      ],
      "name": "verifyCertificate",
      "outputs": [
        {
          "internalType": "bool",
          "name": "",
          "type": "bool"
        }
      ],
      "stateMutability": "view",
      "type": "function"
    }
  ],
  "bytecode": "0x608060405234801561001057600080fd5b5033600160006101000a81548173ffffffffffffffffffffffffffffffffffffffff021916908373ffffffffffffffffffffffffffffffffffffffff160217905550610c29806100616000396000f3fe608060405234801561001057600080fd5b50600436106100575760003560e01c8063142e15421461005c5780632751f71b14610078578063678d3644146100a85780638f2b91ea146100c4578063f851a440146100f7575b600080fd5b610076600480360381019061007191906107e5565b610115565b005b610092600480360381019061008d919061082e565b61029c565b60405161009f91906108c1565b60405180910390f35b6100c260048036038101906100bd919061082e565b61039f565b005b6100de60048036038101906100d991906107e5565b6105f2565b6040516100ee949392919061094f565b60405180910390f35b6100ff610665565b60405161010c9190610994565b60405180910390f35b600160009054906101000a900473ffffffffffffffffffffffffffffffffffffffff1673ffffffffffffffffffffffffffffffffffffffff163373ffffffffffffffffffffffffffffffffffffffff16146101a5576040517f08c379a000000000000000000000000000000000000000000000000000000000815260040161019c90610a32565b60405180910390fd5b6000816040516101b59190610ac3565b908152602001604051809103902060020160149054906101000a900460ff16610213576040517f08c379a000000000000000000000000000000000000000000000000000000000815260040161020a90610b4c565b60405180910390fd5b600080826040516102249190610ac3565b908152602001604051809103902060020160146101000a81548160ff0219169083151502179055508060405161025a9190610ac3565b60405180910390207f57bf3aad622f3cf905e8c86d1e40e1de99f3ea3a1c14decf97a8671c24fbe557426040516102919190610b6c565b60405180910390a250565b6000806000846040516102af9190610ac3565b908152602001604051809103902060405180608001604052908160008201548152602001600182015481526020016002820160009054906101000a900473ffffffffffffffffffffffffffffffffffffffff1673ffffffffffffffffffffffffffffffffffffffff1673ffffffffffffffffffffffffffffffffffffffff1681526020016002820160149054906101000a900460ff16151515158152505090508060600151610362576000915050610399565b6000836040516020016103759190610ac3565b60405160208183030381529060405280519060200120905080826000015114925050505b92915050565b600160009054906101000a900473ffffffffffffffffffffffffffffffffffffffff1673ffffffffffffffffffffffffffffffffffffffff163373ffffffffffffffffffffffffffffffffffffffff161461042f576040517f08c379a000000000000000000000000000000000000000000000000000000000815260040161042690610a32565b60405180910390fd5b60008260405161043f9190610ac3565b908152602001604051809103902060020160149054906101000a900460ff161561049e576040517f08c379a000000000000000000000000000000000000000000000000000000000815260040161049590610bd3565b60405180910390fd5b6000816040516020016104b19190610ac3565b60405160208183030381529060405280519060200120905060405180608001604052808281526020014281526020013373ffffffffffffffffffffffffffffffffffffffff168152602001600115158152506000846040516105139190610ac3565b9081526020016040518091039020600082015181600001556020820151816001015560408201518160020160006101000a81548173ffffffffffffffffffffffffffffffffffffffff021916908373ffffffffffffffffffffffffffffffffffffffff16021790555060608201518160020160146101000a81548160ff02191690831515021790555090505080836040516105ae9190610ac3565b60405180910390207fb413f25381b5716372a224272d65830799f9f47c217febe73359d2cad838ec00426040516105e59190610b6c565b60405180910390a3505050565b6000818051602081018201805184825260208301602085012081835280955050505050506000915090508060000154908060010154908060020160009054906101000a900473ffffffffffffffffffffffffffffffffffffffff16908060020160149054906101000a900460ff16905084565b600160009054906101000a900473ffffffffffffffffffffffffffffffffffffffff1681565b6000604051905090565b600080fd5b600080fd5b600080fd5b600080fd5b6000601f19601f8301169050919050565b7f4e487b7100000000000000000000000000000000000000000000000000000000600052604160045260246000fd5b6106f2826106a9565b810181811067ffffffffffffffff82111715610711576107106106ba565b5b80604052505050565b600061072461068b565b905061073082826106e9565b919050565b600067ffffffffffffffff8211156107505761074f6106ba565b5b610759826106a9565b9050602081019050919050565b82818337600083830152505050565b600061078861078384610735565b61071a565b9050828152602081018484840111156107a4576107a36106a4565b5b6107af848285610766565b509392505050565b600082601f8301126107cc576107cb61069f565b5b81356107dc848260208601610775565b91505092915050565b6000602082840312156107fb576107fa610695565b5b600082013567ffffffffffffffff8111156108195761081861069a565b5b610825848285016107b7565b91505092915050565b6000806040838503121561084557610844610695565b5b600083013567ffffffffffffffff8111156108635761086261069a565b5b61086f858286016107b7565b925050602083013567ffffffffffffffff8111156108905761088f61069a565b5b61089c858286016107b7565b9150509250929050565b60008115159050919050565b6108bb816108a6565b82525050565b60006020820190506108d660008301846108b2565b92915050565b6000819050919050565b6108ef816108dc565b82525050565b6000819050919050565b610908816108f5565b82525050565b600073ffffffffffffffffffffffffffffffffffffffff82169050919050565b60006109398261090e565b9050919050565b6109498161092e565b82525050565b600060808201905061096460008301876108e6565b61097160208301866108ff565b61097e6040830185610940565b61098b60608301846108b2565b95945050505050565b60006020820190506109a96000830184610940565b92915050565b600082825260208201905092915050565b7f4f6e6c792061646d696e2063616e20706572666f726d2074686973206163746960008201527f6f6e000000000000000000000000000000000000000000000000000000000000602082015250565b6000610a1c6022836109af565b9150610a27826109c0565b604082019050919050565b60006020820190508181036000830152610a4b81610a0f565b9050919050565b600081519050919050565b600081905092915050565b60005b83811015610a86578082015181840152602081019050610a6b565b60008484015250505050565b6000610a9d82610a52565b610aa78185610a5d565b9350610ab7818560208601610a68565b80840191505092915050565b6000610acf8284610a92565b915081905092915050565b7f4365727469666963617465206e6f7420666f756e64206f7220616c726561647960008201527f20696e76616c6964000000000000000000000000000000000000000000000000602082015250565b6000610b366028836109af565b9150610b4182610ada565b604082019050919050565b60006020820190508181036000830152610b6581610b29565b9050919050565b6000602082019050610b8160008301846108ff565b92915050565b7f436572746966696361746520494420616c726561647920657869737473000000600082015250565b6000610bbd601d836109af565b9150610bc882610b87565b602082019050919050565b60006020820190508181036000830152610bec81610bb0565b905091905056fea264697066735822122057e9feec06c5e3e4b58a70ff2510abfcf3c92c64924917cda4545206cdbc313264736f6c63430008140033",
  "linkReferences": {},
  "deployedLinkReferences": {}
}